{
  "_format": "hh-sol-artifact-1",
  "contractName": "PaymentVerifier",
  "sourceName": "contracts/PaymentVerifier.sol",
  "abi": [
    {
      "inputs": [
        {
          "internalType": "address",
          "name": "_verifierAddress",
          "type": "address"
        }
      ],
      "stateMutability": "nonpayable",
      "type": "constructor"
    },
    {
      "anonymous": false,
      "inputs": [
        {
          "indexed": true,
          "internalType": "uint256",
          "name": "paymentId",
          "type": "uint256"
        },
        {
          "indexed": true,
          "internalType": "address",
          "name": "user",
          "type": "address"
        },
        {
          "indexed": false,
          "internalType": "uint256",
          "name": "amount",
          "type": "uint256"
        }
      ],
      "name": "PaymentRegistered",
      "type": "event"
    },
    {
      "anonymous": false,
      "inputs": [
        {
          "indexed": true,
          "internalType": "uint256",
          "name": "paymentId",
          "type": "uint256"
        },
        {
          "indexed": true,
          "internalType": "address",
          "name": "user",
          "type": "address"
        },
        {
          "indexed": false,
          "internalType": "uint256",
          "name": "amount",
          "type": "uint256"
        }
      ],
      "name": "PaymentVerified",
      "type": "event"
    },
    {
      "inputs": [
        {
          "internalType": "uint256",
          "name": "paymentId",
          "type": "uint256"
        }
      ],
      "name": "getPayment",
      "outputs": [
        {
          "components": [
            {
              "internalType": "address",
              "name": "user",
              "type": "address"
            },
            {
              "internalType": "uint256",
              "name": "amount",
              "type": "uint256"
            },
            {
              "internalType": "bytes32",
              "name": "pinHash",
              "type": "bytes32"
            },
            {
              "internalType": "uint256",
              "name": "timestamp",
              "type": "uint256"
            },
            {
              "internalType": "bool",
              "name": "isVerified",
              "type": "bool"
            }
          ],
          "internalType": "struct PaymentVerifier.VerifiedPayment",
          "name": "",
          "type": "tuple"
        }
      ],
      "stateMutability": "view",
      "type": "function"
    },
    {
      "inputs": [
        {
          "internalType": "address",
          "name": "user",
          "type": "address"
        }
      ],
      "name": "getUserPayments",
      "outputs": [
        {
          "internalType": "uint256[]",
          "name": "",
          "type": "uint256[]"
        }
      ],
      "stateMutability": "view",
      "type": "function"
    },
    {
      "inputs": [],
      "name": "paymentCounter",
      "outputs": [
        {
          "internalType": "uint256",
          "name": "",
          "type": "uint256"
        }
      ],
      "stateMutability": "view",
      "type": "function"
    },
    {
      "inputs": [
        {
          "internalType": "uint256",
          "name": "",
          "type": "uint256"
        }
      ],
      "name": "payments",
      "outputs": [
        {
          "internalType": "address",
          "name": "user",
          "type": "address"
        },
        {
          "internalType": "uint256",
          "name": "amount",
          "type": "uint256"
        },
        {
          "internalType": "bytes32",
          "name": "pinHash",
          "type": "bytes32"
        },
        {
          "internalType": "uint256",
          "name": "timestamp",
          "type": "uint256"
        },
        {
          "internalType": "bool",
          "name": "isVerified",
          "type": "bool"
        }
      ],
      "stateMutability": "view",
      "type": "function"
    },
    {
      "inputs": [
        {
          "internalType": "uint256",
          "name": "amount",
          "type": "uint256"
        },
        {
          "internalType": "bytes32",
          "name": "pinHash",
          "type": "bytes32"
        }
      ],
      "name": "registerPayment",
      "outputs": [
        {
          "internalType": "uint256",
          "name": "",
          "type": "uint256"
        }
      ],
      "stateMutability": "nonpayable",
      "type": "function"
    },
    {
      "inputs": [
        {
          "internalType": "address",
          "name": "",
          "type": "address"
        },
        {
          "internalType": "uint256",
          "name": "",
          "type": "uint256"
        }
      ],
      "name": "userPayments",
      "outputs": [
        {
          "internalType": "uint256",
          "name": "",
          "type": "uint256"
        }
      ],
      "stateMutability": "view",
      "type": "function"
    },
    {
      "inputs": [],
      "name": "verifier",
      "outputs": [
        {
          "internalType": "contract Verifier",
          "name": "",
          "type": "address"
        }
      ],
      "stateMutability": "view",
      "type": "function"
    },
    {
      "inputs": [
        {
          "internalType": "uint256",
          "name": "paymentId",
          "type": "uint256"
        },
        {
          "internalType": "uint256[2]",
          "name": "a",
          "type": "uint256[2]"
        },
        {
          "internalType": "uint256[2][2]",
          "name": "b",
          "type": "uint256[2][2]"
        },
        {
          "internalType": "uint256[2]",
          "name": "c",
          "type": "uint256[2]"
        },
        {
          "internalType": "uint256[1]",
          "name": "input",
          "type": "uint256[1]"
        }
      ],
      "name": "verifyPayment",
      "outputs": [],
      "stateMutability": "nonpayable",
      "type": "function"
    }
  ],
  "bytecode": "0x608060405260006003553480156200001657600080fd5b50604051620016d3380380620016d383398181016040528101906200003c9190620000ed565b806000806101000a81548173ffffffffffffffffffffffffffffffffffffffff021916908373ffffffffffffffffffffffffffffffffffffffff160217905550506200011f565b600080fd5b600073ffffffffffffffffffffffffffffffffffffffff82169050919050565b6000620000b58262000088565b9050919050565b620000c781620000a8565b8114620000d357600080fd5b50565b600081519050620000e781620000bc565b92915050565b60006020828403121562000106576200010562000083565b5b60006200011684828501620000d6565b91505092915050565b6115a4806200012f6000396000f3fe608060405234801561001057600080fd5b50600436106100885760003560e01c806387d817891161005b57806387d81789146101295780638cfeab351461015d5780639d7dadeb1461018d578063ed3ccc26146101bd57610088565b80632b7ac3f31461008d5780633280a836146100ab57806354e9660f146100db57806376840b601461010b575b600080fd5b6100956101d9565b6040516100a29190610976565b60405180910390f35b6100c560048036038101906100c091906109d6565b6101fd565b6040516100d29190610acf565b60405180910390f35b6100f560048036038101906100f09190610b16565b6102fd565b6040516101029190610b65565b60405180910390f35b6101136104b7565b6040516101209190610b65565b60405180910390f35b610143600480360381019061013e91906109d6565b6104bd565b604051610154959493929190610bad565b60405180910390f35b61017760048036038101906101729190610c2c565b610520565b6040516101849190610b65565b60405180910390f35b6101a760048036038101906101a29190610c6c565b610551565b6040516101b49190610d48565b60405180910390f35b6101d760048036038101906101d29190611013565b6105e8565b005b60008054906101000a900473ffffffffffffffffffffffffffffffffffffffff1681565b6102056108ad565b6003548210610249576040517f08c379a0000000000000000000000000000000000000000000000000000000008152600401610240906110ed565b60405180910390fd5b600160008381526020019081526020016000206040518060a00160405290816000820160009054906101000a900473ffffffffffffffffffffffffffffffffffffffff1673ffffffffffffffffffffffffffffffffffffffff1673ffffffffffffffffffffffffffffffffffffffff1681526020016001820154815260200160028201548152602001600382015481526020016004820160009054906101000a900460ff1615151515815250509050919050565b6000806003549050600360008154809291906103189061113c565b91905055506040518060a001604052803373ffffffffffffffffffffffffffffffffffffffff168152602001858152602001848152602001428152602001600015158152506001600083815260200190815260200160002060008201518160000160006101000a81548173ffffffffffffffffffffffffffffffffffffffff021916908373ffffffffffffffffffffffffffffffffffffffff16021790555060208201518160010155604082015181600201556060820151816003015560808201518160040160006101000a81548160ff021916908315150217905550905050600260003373ffffffffffffffffffffffffffffffffffffffff1673ffffffffffffffffffffffffffffffffffffffff1681526020019081526020016000208190806001815401808255809150506001900390600052602060002001600090919091909150553373ffffffffffffffffffffffffffffffffffffffff16817f2cc7f00a30637c466f3d1583dbe3744a8e873e264a9031cd3fee37f9fab6dd45866040516104a59190610b65565b60405180910390a38091505092915050565b60035481565b60016020528060005260406000206000915090508060000160009054906101000a900473ffffffffffffffffffffffffffffffffffffffff16908060010154908060020154908060030154908060040160009054906101000a900460ff16905085565b6002602052816000526040600020818154811061053c57600080fd5b90600052602060002001600091509150505481565b6060600260008373ffffffffffffffffffffffffffffffffffffffff1673ffffffffffffffffffffffffffffffffffffffff1681526020019081526020016000208054806020026020016040519081016040528092919081815260200182805480156105dc57602002820191906000526020600020905b8154815260200190600101908083116105c8575b50505050509050919050565b600354851061062c576040517f08c379a0000000000000000000000000000000000000000000000000000000008152600401610623906110ed565b60405180910390fd5b6001600086815260200190815260200160002060040160009054906101000a900460ff1615610690576040517f08c379a0000000000000000000000000000000000000000000000000000000008152600401610687906111d0565b60405180910390fd5b3373ffffffffffffffffffffffffffffffffffffffff166001600087815260200190815260200160002060000160009054906101000a900473ffffffffffffffffffffffffffffffffffffffff1673ffffffffffffffffffffffffffffffffffffffff1614610734576040517f08c379a000000000000000000000000000000000000000000000000000000000815260040161072b9061123c565b60405180910390fd5b60008054906101000a900473ffffffffffffffffffffffffffffffffffffffff1673ffffffffffffffffffffffffffffffffffffffff166343753b4d858585856040518563ffffffff1660e01b81526004016107939493929190611462565b602060405180830381865afa1580156107b0573d6000803e3d6000fd5b505050506040513d601f19601f820116820180604052508101906107d491906114d5565b610813576040517f08c379a000000000000000000000000000000000000000000000000000000000815260040161080a9061154e565b60405180910390fd5b600180600087815260200190815260200160002060040160006101000a81548160ff0219169083151502179055503373ffffffffffffffffffffffffffffffffffffffff16857fb85d7f5ddc21fee642174f1a15758f4e59755d5d54aac4ecccbc75a52e715fea600160008981526020019081526020016000206001015460405161089e9190610b65565b60405180910390a35050505050565b6040518060a00160405280600073ffffffffffffffffffffffffffffffffffffffff1681526020016000815260200160008019168152602001600081526020016000151581525090565b600073ffffffffffffffffffffffffffffffffffffffff82169050919050565b6000819050919050565b600061093c610937610932846108f7565b610917565b6108f7565b9050919050565b600061094e82610921565b9050919050565b600061096082610943565b9050919050565b61097081610955565b82525050565b600060208201905061098b6000830184610967565b92915050565b6000604051905090565b600080fd5b6000819050919050565b6109b3816109a0565b81146109be57600080fd5b50565b6000813590506109d0816109aa565b92915050565b6000602082840312156109ec576109eb61099b565b5b60006109fa848285016109c1565b91505092915050565b6000610a0e826108f7565b9050919050565b610a1e81610a03565b82525050565b610a2d816109a0565b82525050565b6000819050919050565b610a4681610a33565b82525050565b60008115159050919050565b610a6181610a4c565b82525050565b60a082016000820151610a7d6000850182610a15565b506020820151610a906020850182610a24565b506040820151610aa36040850182610a3d565b506060820151610ab66060850182610a24565b506080820151610ac96080850182610a58565b50505050565b600060a082019050610ae46000830184610a67565b92915050565b610af381610a33565b8114610afe57600080fd5b50565b600081359050610b1081610aea565b92915050565b60008060408385031215610b2d57610b2c61099b565b5b6000610b3b858286016109c1565b9250506020610b4c85828601610b01565b9150509250929050565b610b5f816109a0565b82525050565b6000602082019050610b7a6000830184610b56565b92915050565b610b8981610a03565b82525050565b610b9881610a33565b82525050565b610ba781610a4c565b82525050565b600060a082019050610bc26000830188610b80565b610bcf6020830187610b56565b610bdc6040830186610b8f565b610be96060830185610b56565b610bf66080830184610b9e565b9695505050505050565b610c0981610a03565b8114610c1457600080fd5b50565b600081359050610c2681610c00565b92915050565b60008060408385031215610c4357610c4261099b565b5b6000610c5185828601610c17565b9250506020610c62858286016109c1565b9150509250929050565b600060208284031215610c8257610c8161099b565b5b6000610c9084828501610c17565b91505092915050565b600081519050919050565b600082825260208201905092915050565b6000819050602082019050919050565b6000610cd18383610a24565b60208301905092915050565b6000602082019050919050565b6000610cf582610c99565b610cff8185610ca4565b9350610d0a83610cb5565b8060005b83811015610d3b578151610d228882610cc5565b9750610d2d83610cdd565b925050600181019050610d0e565b5085935050505092915050565b60006020820190508181036000830152610d628184610cea565b905092915050565b600080fd5b6000601f19601f8301169050919050565b7f4e487b7100000000000000000000000000000000000000000000000000000000600052604160045260246000fd5b610db882610d6f565b810181811067ffffffffffffffff82111715610dd757610dd6610d80565b5b80604052505050565b6000610dea610991565b9050610df68282610daf565b919050565b600067ffffffffffffffff821115610e1657610e15610d80565b5b602082029050919050565b600080fd5b6000610e39610e3484610dfb565b610de0565b90508060208402830185811115610e5357610e52610e21565b5b835b81811015610e7c5780610e6888826109c1565b845260208401935050602081019050610e55565b5050509392505050565b600082601f830112610e9b57610e9a610d6a565b5b6002610ea8848285610e26565b91505092915050565b600067ffffffffffffffff821115610ecc57610ecb610d80565b5b602082029050919050565b6000610eea610ee584610eb1565b610de0565b90508060408402830185811115610f0457610f03610e21565b5b835b81811015610f2d5780610f198882610e86565b845260208401935050604081019050610f06565b5050509392505050565b600082601f830112610f4c57610f4b610d6a565b5b6002610f59848285610ed7565b91505092915050565b600067ffffffffffffffff821115610f7d57610f7c610d80565b5b602082029050919050565b6000610f9b610f9684610f62565b610de0565b90508060208402830185811115610fb557610fb4610e21565b5b835b81811015610fde5780610fca88826109c1565b845260208401935050602081019050610fb7565b5050509392505050565b600082601f830112610ffd57610ffc610d6a565b5b600161100a848285610f88565b91505092915050565b600080600080600061014086880312156110305761102f61099b565b5b600061103e888289016109c1565b955050602061104f88828901610e86565b945050606061106088828901610f37565b93505060e061107188828901610e86565b92505061012061108388828901610fe8565b9150509295509295909350565b600082825260208201905092915050565b7f5061796d656e7420646f6573206e6f7420657869737400000000000000000000600082015250565b60006110d7601683611090565b91506110e2826110a1565b602082019050919050565b60006020820190508181036000830152611106816110ca565b9050919050565b7f4e487b7100000000000000000000000000000000000000000000000000000000600052601160045260246000fd5b6000611147826109a0565b91507fffffffffffffffffffffffffffffffffffffffffffffffffffffffffffffffff82036111795761117861110d565b5b600182019050919050565b7f5061796d656e7420616c72656164792076657269666965640000000000000000600082015250565b60006111ba601883611090565b91506111c582611184565b602082019050919050565b600060208201905081810360008301526111e9816111ad565b9050919050565b7f4e6f7420617574686f72697a6564000000000000000000000000000000000000600082015250565b6000611226600e83611090565b9150611231826111f0565b602082019050919050565b6000602082019050818103600083015261125581611219565b9050919050565b600060029050919050565b600081905092915050565b6000819050919050565b6000602082019050919050565b6112928161125c565b61129c8184611267565b92506112a782611272565b8060005b838110156112d85781516112bf8782610cc5565b96506112ca8361127c565b9250506001810190506112ab565b505050505050565b600060029050919050565b600081905092915050565b6000819050919050565b600081905092915050565b6113148161125c565b61131e8184611300565b925061132982611272565b8060005b8381101561135a5781516113418782610cc5565b965061134c8361127c565b92505060018101905061132d565b505050505050565b600061136e838361130b565b60408301905092915050565b6000602082019050919050565b611390816112e0565b61139a81846112eb565b92506113a5826112f6565b8060005b838110156113d65781516113bd8782611362565b96506113c88361137a565b9250506001810190506113a9565b505050505050565b600060019050919050565b600081905092915050565b6000819050919050565b6000602082019050919050565b611414816113de565b61141e81846113e9565b9250611429826113f4565b8060005b8381101561145a5781516114418782610cc5565b965061144c836113fe565b92505060018101905061142d565b505050505050565b6000610120820190506114786000830187611289565b6114856040830186611387565b61149260c0830185611289565b6114a061010083018461140b565b95945050505050565b6114b281610a4c565b81146114bd57600080fd5b50565b6000815190506114cf816114a9565b92915050565b6000602082840312156114eb576114ea61099b565b5b60006114f9848285016114c0565b91505092915050565b7f496e76616c6964205a4b2070726f6f6600000000000000000000000000000000600082015250565b6000611538601083611090565b915061154382611502565b602082019050919050565b600060208201905081810360008301526115678161152b565b905091905056fea2646970667358221220d7b544e627bec6d9eb31609ef099434aaf58b6fb0c4ba9841a5e444e18e4056464736f6c63430008130033",
  "linkReferences": {},
  "deployedLinkReferences": {}
}