{
  "_format": "hh-sol-artifact-1",
  "contractName": "PINRegistry",
  "sourceName": "contracts/PINRegistry.sol",
  "abi": [
    {
      "anonymous": false,
      "inputs": [
        {
          "indexed": true,
          "internalType": "bytes32",
          "name": "customerIdHash",
          "type": "bytes32"
        },
        {
          "indexed": true,
          "internalType": "address",
          "name": "registrant",
          "type": "address"
        },
        {
          "indexed": false,
          "internalType": "uint256",
          "name": "timestamp",
          "type": "uint256"
        }
      ],
      "name": "PINRegistered",
      "type": "event"
    },
    {
      "anonymous": false,
      "inputs": [
        {
          "indexed": true,
          "internalType": "bytes32",
          "name": "customerIdHash",
          "type": "bytes32"
        },
        {
          "indexed": false,
          "internalType": "uint256",
          "name": "timestamp",
          "type": "uint256"
        }
      ],
      "name": "PINUpdated",
      "type": "event"
    },
    {
      "anonymous": false,
      "inputs": [
        {
          "indexed": true,
          "internalType": "bytes32",
          "name": "customerIdHash",
          "type": "bytes32"
        },
        {
          "indexed": false,
          "internalType": "uint256",
          "name": "timestamp",
          "type": "uint256"
        }
      ],
      "name": "PINVerified",
      "type": "event"
    },
    {
      "inputs": [],
      "name": "getRegisteredCount",
      "outputs": [
        {
          "internalType": "uint256",
          "name": "",
          "type": "uint256"
        }
      ],
      "stateMutability": "view",
      "type": "function"
    },
    {
      "inputs": [
        {
          "internalType": "uint256",
          "name": "_index",
          "type": "uint256"
        }
      ],
      "name": "getRegisteredCustomer",
      "outputs": [
        {
          "internalType": "bytes32",
          "name": "",
          "type": "bytes32"
        }
      ],
      "stateMutability": "view",
      "type": "function"
    },
    {
      "inputs": [
        {
          "internalType": "string",
          "name": "_customerId",
          "type": "string"
        }
      ],
      "name": "getRegistrationTime",
      "outputs": [
        {
          "internalType": "uint256",
          "name": "",
          "type": "uint256"
        }
      ],
      "stateMutability": "view",
      "type": "function"
    },
    {
      "inputs": [
        {
          "internalType": "string",
          "name": "_customerId",
          "type": "string"
        }
      ],
      "name": "getSalt",
      "outputs": [
        {
          "internalType": "bytes32",
          "name": "",
          "type": "bytes32"
        }
      ],
      "stateMutability": "view",
      "type": "function"
    },
    {
      "inputs": [
        {
          "internalType": "string",
          "name": "_customerId",
          "type": "string"
        }
      ],
      "name": "isPINRegistered",
      "outputs": [
        {
          "internalType": "bool",
          "name": "",
          "type": "bool"
        }
      ],
      "stateMutability": "view",
      "type": "function"
    },
    {
      "inputs": [
        {
          "internalType": "bytes32",
          "name": "",
          "type": "bytes32"
        }
      ],
      "name": "pinRegistry",
      "outputs": [
        {
          "internalType": "bytes32",
          "name": "pinHash",
          "type": "bytes32"
        },
        {
          "internalType": "bytes32",
          "name": "salt",
          "type": "bytes32"
        },
        {
          "internalType": "uint256",
          "name": "registeredAt",
          "type": "uint256"
        },
        {
          "internalType": "bool",
          "name": "exists",
          "type": "bool"
        }
      ],
      "stateMutability": "view",
      "type": "function"
    },
    {
      "inputs": [
        {
          "internalType": "string",
          "name": "_customerId",
          "type": "string"
        },
        {
          "internalType": "bytes32",
          "name": "_pinHash",
          "type": "bytes32"
        },
        {
          "internalType": "bytes32",
          "name": "_salt",
          "type": "bytes32"
        }
      ],
      "name": "registerPIN",
      "outputs": [],
      "stateMutability": "nonpayable",
      "type": "function"
    },
    {
      "inputs": [
        {
          "internalType": "uint256",
          "name": "",
          "type": "uint256"
        }
      ],
      "name": "registeredCustomers",
      "outputs": [
        {
          "internalType": "bytes32",
          "name": "",
          "type": "bytes32"
        }
      ],
      "stateMutability": "view",
      "type": "function"
    },
    {
      "inputs": [
        {
          "internalType": "string",
          "name": "_customerId",
          "type": "string"
        },
        {
          "internalType": "bytes32",
          "name": "_claimedPinHash",
          "type": "bytes32"
        }
      ],
      "name": "verifyPIN",
      "outputs": [
        {
          "internalType": "bool",
          "name": "valid",
          "type": "bool"
        },
        {
          "internalType": "bytes32",
          "name": "salt",
          "type": "bytes32"
        }
      ],
      "stateMutability": "nonpayable",
      "type": "function"
    }
  ],
  "bytecode": "0x608060405234801561001057600080fd5b50610e22806100206000396000f3fe608060405234801561001057600080fd5b50600436106100935760003560e01c80638e95c13c116100665780638e95c13c146101325780639442d53b14610162578063d353d0bd14610192578063d66ee75a146101c5578063f98676e1146101f557610093565b80630f88942c146100985780633f6af805146100c857806348b2170f146100f857806386a6993514610114575b600080fd5b6100b260048036038101906100ad9190610833565b610226565b6040516100bf919061089b565b60405180910390f35b6100e260048036038101906100dd91906108ec565b610280565b6040516100ef9190610932565b60405180910390f35b610112600480360381019061010d9190610979565b6102a4565b005b61011c6104bd565b60405161012991906109fc565b60405180910390f35b61014c600480360381019061014791906108ec565b6104ca565b6040516101599190610932565b60405180910390f35b61017c60048036038101906101779190610833565b610539565b60405161018991906109fc565b60405180910390f35b6101ac60048036038101906101a79190610a17565b6105e8565b6040516101bc9493929190610a44565b60405180910390f35b6101df60048036038101906101da9190610833565b610625565b6040516101ec9190610932565b60405180910390f35b61020f600480360381019061020a9190610a89565b6106d4565b60405161021d929190610ae9565b60405180910390f35b600080838360405160200161023c929190610b51565b60405160208183030381529060405280519060200120905060008082815260200190815260200160002060030160009054906101000a900460ff1691505092915050565b6001818154811061029057600080fd5b906000526020600020016000915090505481565b600084849050116102ea576040517f08c379a00000000000000000000000000000000000000000000000000000000081526004016102e190610bc7565b60405180910390fd5b6000801b820361032f576040517f08c379a000000000000000000000000000000000000000000000000000000000815260040161032690610c33565b60405180910390fd5b60008484604051602001610344929190610b51565b604051602081830303815290604052805190602001209050600080600083815260200190815260200160002060030160009054906101000a900460ff16905060405180608001604052808581526020018481526020014281526020016001151581525060008084815260200190815260200160002060008201518160000155602082015181600101556040820151816002015560608201518160030160006101000a81548160ff0219169083151502179055509050508061047c5760018290806001815401808255809150506001900390600052602060002001600090919091909150553373ffffffffffffffffffffffffffffffffffffffff16827fe0196d3eee571b446679d1813ad628e428fd8ac3b3f2e8362d711da3ccee57224260405161046f91906109fc565b60405180910390a36104b5565b817f6ae66fff05ed83044fc7eb8a1a3380df09132c116d54925ddbd1ca814ea8418e426040516104ac91906109fc565b60405180910390a25b505050505050565b6000600180549050905090565b60006001805490508210610513576040517f08c379a000000000000000000000000000000000000000000000000000000000815260040161050a90610c9f565b60405180910390fd5b6001828154811061052757610526610cbf565b5b90600052602060002001549050919050565b600080838360405160200161054f929190610b51565b60405160208183030381529060405280519060200120905060008082815260200190815260200160002060030160009054906101000a900460ff166105c9576040517f08c379a00000000000000000000000000000000000000000000000000000000081526004016105c090610d3a565b60405180910390fd5b6000808281526020019081526020016000206002015491505092915050565b60006020528060005260406000206000915090508060000154908060010154908060020154908060030160009054906101000a900460ff16905084565b600080838360405160200161063b929190610b51565b60405160208183030381529060405280519060200120905060008082815260200190815260200160002060030160009054906101000a900460ff166106b5576040517f08c379a00000000000000000000000000000000000000000000000000000000081526004016106ac90610d3a565b60405180910390fd5b6000808281526020019081526020016000206001015491505092915050565b600080600085856040516020016106ec929190610b51565b604051602081830303815290604052805190602001209050600080600083815260200190815260200160002090508060030160009054906101000a900460ff1661076b576040517f08c379a000000000000000000000000000000000000000000000000000000000815260040161076290610dcc565b60405180910390fd5b8481600001541493508060010154925083156107ba57817ff0875a29b64c6f4b0c04f5dee09d7f5c1c73a7d3febd2e155cb530e543f5e552426040516107b191906109fc565b60405180910390a25b5050935093915050565b600080fd5b600080fd5b600080fd5b600080fd5b600080fd5b60008083601f8401126107f3576107f26107ce565b5b8235905067ffffffffffffffff8111156108105761080f6107d3565b5b60208301915083600182028301111561082c5761082b6107d8565b5b9250929050565b6000806020838503121561084a576108496107c4565b5b600083013567ffffffffffffffff811115610868576108676107c9565b5b610874858286016107dd565b92509250509250929050565b60008115159050919050565b61089581610880565b82525050565b60006020820190506108b0600083018461088c565b92915050565b6000819050919050565b6108c9816108b6565b81146108d457600080fd5b50565b6000813590506108e6816108c0565b92915050565b600060208284031215610902576109016107c4565b5b6000610910848285016108d7565b91505092915050565b6000819050919050565b61092c81610919565b82525050565b60006020820190506109476000830184610923565b92915050565b61095681610919565b811461096157600080fd5b50565b6000813590506109738161094d565b92915050565b60008060008060608587031215610993576109926107c4565b5b600085013567ffffffffffffffff8111156109b1576109b06107c9565b5b6109bd878288016107dd565b945094505060206109d087828801610964565b92505060406109e187828801610964565b91505092959194509250565b6109f6816108b6565b82525050565b6000602082019050610a1160008301846109ed565b92915050565b600060208284031215610a2d57610a2c6107c4565b5b6000610a3b84828501610964565b91505092915050565b6000608082019050610a596000830187610923565b610a666020830186610923565b610a7360408301856109ed565b610a80606083018461088c565b95945050505050565b600080600060408486031215610aa257610aa16107c4565b5b600084013567ffffffffffffffff811115610ac057610abf6107c9565b5b610acc868287016107dd565b93509350506020610adf86828701610964565b9150509250925092565b6000604082019050610afe600083018561088c565b610b0b6020830184610923565b9392505050565b600081905092915050565b82818337600083830152505050565b6000610b388385610b12565b9350610b45838584610b1d565b82840190509392505050565b6000610b5e828486610b2c565b91508190509392505050565b600082825260208201905092915050565b7f437573746f6d65722049442063616e6e6f7420626520656d7074790000000000600082015250565b6000610bb1601b83610b6a565b9150610bbc82610b7b565b602082019050919050565b60006020820190508181036000830152610be081610ba4565b9050919050565b7f50494e20686173682063616e6e6f74206265207a65726f000000000000000000600082015250565b6000610c1d601783610b6a565b9150610c2882610be7565b602082019050919050565b60006020820190508181036000830152610c4c81610c10565b9050919050565b7f496e646578206f7574206f6620626f756e647300000000000000000000000000600082015250565b6000610c89601383610b6a565b9150610c9482610c53565b602082019050919050565b60006020820190508181036000830152610cb881610c7c565b9050919050565b7f4e487b7100000000000000000000000000000000000000000000000000000000600052603260045260246000fd5b7f50494e206e6f7420726567697374657265640000000000000000000000000000600082015250565b6000610d24601283610b6a565b9150610d2f82610cee565b602082019050919050565b60006020820190508181036000830152610d5381610d17565b9050919050565b7f50494e206e6f74207265676973746572656420666f722074686973206375737460008201527f6f6d657200000000000000000000000000000000000000000000000000000000602082015250565b6000610db6602483610b6a565b9150610dc182610d5a565b604082019050919050565b60006020820190508181036000830152610de581610da9565b905091905056fea2646970667358221220db08ece5d4fb48d7e2f70958ab6481d3209efe656057da5bcb5dbc542624f9bf64736f6c63430008130033",
  "linkReferences": {},
  "deployedLinkReferences": {}
}